:0400000007EF00F016
:10000800538293ED14F04BEF18F0466E000E486ED5
:10001800000E476E000E4A6E000E496E4650D8A478
:10002800C6D0000E486E000E476E48BE08D0485035
:1000380005E10A0E475CD8B0120001D01200000E8C
:100048004A6E000E496E4ABE06D04A504AE1080E72
:10005800495CD8B046D047C042F048C043F0D89079
:1000680042364336D89042364336D89042364336E5
:10007800690E446E7D0E456E42504426435045221B
:10008800495044264A50452244C0F6FF45C0F7FF70
:100098000800F550640AD8B424D047C042F048C0DC
:1000A80043F0D89042364336D89042364336D890FB
:1000B80042364336690E446E7D0E456E42504426E4
:1000C80043504522495044264A50452244C0F6FF31
:1000D80045C0F7FF0800F55023EC17F0494A4A2AB3
:1000E800B2D72EEC16F0070E426E7D0EE82EFED724
:1000F800422EFCD700F0000E4A6E000E496E4ABE32
:1001080006D04A504AE1080E495CD8B046D047C0EC
:1001180042F048C043F0D89042364336D890423631
:100128004336D89042364336690E446E7D0E456E8E
:100138004250442643504522495044264A504522BD
:1001480044C0F6FF45C0F7FF0800F550640AD8B46C
:1001580024D047C042F048C043F0D89042364336D6
:10016800D89042364336D89042364336690E446EAC
:100178007D0E456E42504426435045224950442640
:100188004A50452244C0F6FF45C0F7FF0800F55025
:10019800C8EC16F0494A4A2AB2D72EEC16F0474A5C
:1001A800482A48BE4CD7485001E143D712004604BC
:1001B800D8A4BAD0000E486E000E476E48BE08D0CC
:1001C800485005E1070E475CD8B0120001D0120074
:1001D800000E4A6E000E496E4ABE06D04A5044E1EF
:1001E800060E495CD8B040D047C02DF048C02EF06C
:1001F800000E306E060E2F6E83EC18F0390E426E2C
:100208007F0E436E2D5042262E50432249504226DF
:100218004A50432242C0F6FF43C0F7FF0800F5509A
:10022800640AD8B421D047C02DF048C02EF0000E83
:10023800306E060E2F6E83EC18F0390E426E7F0E6C
:10024800436E2D5042262E504322495042264A5092
:10025800432242C0F6FF43C0F7FF0800F55023ECE5
:1002680017F0494A4A2AB8D72EEC16F0070E426E04
:100278007D0EE82EFED7422EFCD700F0000E4A6E07
:10028800000E496E4ABE06D04A5044E1060E495C4B
:10029800D8B040D047C02DF048C02EF0000E306EC8
:1002A800060E2F6E83EC18F0390E426E7F0E436EE9
:1002B8002D5042262E504322495042264A5043226E
:1002C80042C0F6FF43C0F7FF0800F550640AD8B4EF
:1002D80021D047C02DF048C02EF0000E306E060E1B
:1002E8002F6E83EC18F0390E426E7F0E436E2D5040
:1002F80042262E504322495042264A50432242C0A9
:10030800F6FF43C0F7FF0800F550C8EC16F0494A5D
:100318004A2AB8D72EEC16F0474A482A48BE58D77A
:10032800485001E14FD71200020E4618D8A4B9D0A0
:10033800000E486E000E476E48BE08D0485005E1D2
:10034800050E475CD8B0120001D01200000E4A6EAC
:10035800000E496E4ABE06D04A5044E1040E495C7C
:10036800D8B040D047C042F048C043F0D890423699
:100378004336D89042364336CB0E446E7F0E456ED8
:100388004250442643504522495044264A5045226B
:1003980044C0F6FF45C0F7FF0800F550640AD8B41A
:1003A80021D047C042F048C043F0D8904236433687
:1003B800D89042364336CB0E446E7F0E456E42507F
:1003C800442643504522495044264A50452244C0B9
:1003D800F6FF45C0F7FF0800F55023EC17F0494A2F
:1003E8004A2AB8D72EEC16F00D0E426EFC0EE82EF7
:1003F800FED7422EFCD7000E4A6E000E496E4ABE4A
:1004080006D04A5044E1040E495CD8B040D047C0F9
:1004180042F048C043F0D89042364336D89042362E
:100428004336CB0E446E7F0E456E425044264350F1
:100438004522495044264A50452244C0F6FF45C04B
:10044800F7FF0800F550640AD8B421D047C042F03D
:1004580048C043F0D89042364336D89042364336A7
:10046800CB0E446E7F0E456E4250442643504522C3
:10047800495044264A50452244C0F6FF45C0F7FF7C
:100488000800F550C8EC16F0494A4A2AB8D72EECAD
:1004980016F0474A482A48BE59D7485001E150D774
:1004A8001200030E4618D8A41200000E486E030E60
:1004B800476E48BEA7D0000E4A6E000E496E4ABE6F
:1004C80006D04A5044E11A0E495CD8B040D047C023
:1004D8002DF048C02EF0000E306E1A0E2F6E83ECF1
:1004E80018F0410E426E7C0E436E2D5042262E505F
:1004F8004322495042264A50432242C0F6FF43C095
:10050800F7FF0800F550640AD8B421D047C02DF091
:1005180048C02EF0000E306E1A0E2F6E83EC18F0C5
:10052800410E426E7C0E436E2D5042262E504322C1
:10053800495042264A50432242C0F6FF43C0F7FFC3
:100548000800F55023EC17F0494A4A2AB8D72EEC90
:1005580016F00D0E426EFC0EE82EFED7422EFCD78A
:10056800000E4A6E000E496E4ABE06D04A5044E15B
:100578001A0E495CD8B040D047C02DF048C02EF0C4
:10058800000E306E1A0E2F6E83EC18F0410E426E7C
:100598007C0E436E2D5042262E504322495042264F
:1005A8004A50432242C0F6FF43C0F7FF0800F55007
:1005B800640AD8B421D047C02DF048C02EF0000EF0
:1005C800306E1A0E2F6E83EC18F0410E426E7C0EC0
:1005D800436E2D5042262E504322495042264A50FF
:1005E800432242C0F6FF43C0F7FF0800F550C8ECAD
:1005F80016F0494A4A2AB8D72EEC16F04706D8A072
:10060800480657D7000E486E000E476E48BE08D001
:10061800485005E1030E475CD8B0120001D0120023
:10062800000E4A6E000E496E4ABE06D04A5044E19A
:100638001A0E495CD8B040D047C02DF048C02EF003
:10064800000E306E1A0E2F6E83EC18F0410E426EBB
:100658007C0E436E2D5042262E504322495042268E
:100668004A50432242C0F6FF43C0F7FF0800F55046
:10067800640AD8B421D047C02DF048C02EF0000E2F
:10068800306E1A0E2F6E83EC18F0410E426E7C0EFF
:10069800436E2D5042262E504322495042264A503E
:1006A800432242C0F6FF43C0F7FF0800F55023EC91
:1006B80017F0494A4A2AB8D72EEC16F00D0E426EAA
:1006C800FC0EE82EFED7422EFCD7000E4A6E000E16
:1006D800496E4ABE06D04A5044E11A0E495CD8B069
:1006E80040D047C02DF048C02EF0000E306E1A0ED4
:1006F8002F6E83EC18F0410E426E7C0E436E2D5027
:1007080042262E504322495042264A50432242C094
:10071800F6FF43C0F7FF0800F550640AD8B421D0AB
:1007280047C02DF048C02EF0000E306E1A0E2F6E06
:1007380083EC18F0410E426E7C0E436E2D5042261B
:100748002E504322495042264A50432242C0F6FFC7
:1007580043C0F7FF0800F550C8EC16F0494A4A2A8A
:10076800B8D72EEC16F0474A482A48BE59D7485001
:1007780001E150D71200000E0001D66F000ED76FAE
:10078800E00E0101806FE20E9D6FE40EBA6FE60E77
:10079800D76FC9EC18F0DCEC18F0E7EC18F0080E8D
:1007A8000001D66F800ED76FD7C02DF0D651BAECA6
:1007B80018F0D3508F0B6009D36E090EC86EC80E9F
:1007C80000D0E82EFDD7000E0001DF6F000EDE6FAF
:1007D800DFBF06D0DF514CE1040EDE5DD8B048D053
:1007E800D3EC18F0E5EC18F0D3EC18F0DEC02DF0DF
:1007F800DFC02EF0000E306E1D0E2F6E83EC18F049
:10080800800E2D24D96E010E2E20DA6EDF506CEC8E
:1008180018F0D3EC18F0210E6CEC18F0D3EC18F0AB
:10082800E3EC18F0D3EC18F0E5EC18F0D3EC18F082
:10083800DEC02DF0DFC02EF0000E306E1D0E2F6EC4
:1008480083EC18F0800E2D24D96E010E2E20DA6E5E
:10085800DF506CEC18F0D3EC18F0810E6CEC18F04B
:10086800D3EC18F0E3EC18F00001DE4BDF2BB0D727
:10087800000EDB6F000EDA6F000ED36F000ED96F1B
:10088800000EDF6F000EDE6FDFBF06D0DF5138E1EC
:10089800080EDE5DD8B034D0000EDD6F000EDC6FC0
:1008A800DDBF06D0DD5129E1080EDC5DD8B025D0CA
:1008B800DEC0CFF0DFC0D0F0D890CF37D037D89097
:1008C800CF37D037D890CF37D037F90ED16F7E0ECB
:1008D800D26FCF51D127D051D223DC51D127DD514E
:1008E800D223D1C0F6FFD2C0F7FF0800F55023ECA1
:1008F80017F00001DC4BDD2BD3D7DE4BDF2BC4D741
:100908002EEC16F0410E0001CF6FEE0EE82EFED74A
:10091800CF2FFCD700F0000E0001DF6F000EDE6F56
:10092800DFBF06D0DF510BE1400EDE5DD8B007D047
:10093800DE51C8EC16F00001DE4BDF2BF1D72EECB0
:1009480016F00001C005D8A4FCD7000EC06FC35133
:10095800010DF90EF324F66E7D0EF420F76E0800F3
:10096800F5CFCFF0CF390F0BD46FC351010DF90E6E
:10097800F324F66E7D0EF420F76E0800F5500F0B89
:10098800D56FD551080DF350D425200FD86FC3511A
:10099800020D000EF324D96E010EF420DA6EDE503B
:1009A800DE10D8A436D0E051E111D8B405D0020E3B
:1009B800E019E111D8A411D0C351010DB90EF324E7
:1009C800F66E7D0EF420F76E0800F5CF2DF0400E80
:1009D8002E6E990EA9EC18F011D00001E005E11176
:1009E800D8B405D0030EE019E111D8A407D0D8C0B7
:1009F8002DF07F0E2E6E900EA9EC18F00001C35159
:100A0800020D000EF324D96E010EF420DA6E010EE9
:100A180050D0E051E111D8A411D0C351010DB90E45
:100A2800F324F66E7D0EF420F76E0800F5CF2DF056
:100A3800400E2E6E990EA9EC18F031D00001E00599
:100A4800E111D8A408D0D8C02DF07F0E2E6E900EDC
:100A5800A9EC18F024D0020E0001E019E111D8A485
:100A680011D0C351010DB90EF324F66E7D0EF4209A
:100A7800F76E0800F5CF2DF0000E2E6E890EA9EC4A
:100A880018F00DD0030E0001E019E111D8A407D029
:100A9800D8C02DF07F0E2E6E800EA9EC18F0000144
:100AA800C351020D000EF324D96E010EF420DA6E44
:100AB800000EDE6E000EDD6E130EC119D8A415D01F
:100AC800000EDF6F000EDE6FDFBF06D0DF510BE1D7
:100AD800400EDE5DD8B007D0DE51C8EC16F000013C
:100AE800DE4BDF2BF1D72EEC16F00001C251D8A453
:100AF800ABD0130EC119D8B4A7D0000EDF6F000E0B
:100B0800DE6FDFBF06D0DF5156E10E0EDE5DD8B0D6
:100B180052D08B0EDE25F66E7F0EDF21F76E0800B1
:100B2800F550C319D8A402D0010E3ED0DEC0CFF0D4
:100B3800DFC0D0F0CF1FD01FCF4BD02B270ECF2731
:100B4800000ED0238B0ECF25F66E7F0ED021F76EC8
:100B58000800F550C319D8A402D0020E25D0630EA0
:100B6800DE25F66E7F0EDF21F76E0800F550C319FB
:100B7800D8A402D0030E18D0DEC0CFF0DFC0D0F06A
:100B8800CF1FD01FCF4BD02B270ECF27000ED0233F
:100B9800630ECF25F66E7F0ED021F76E0800F55054
:100BA800C319D8A405D0040EDB6FDEC0DAF003D079
:100BB800DE4BDF2BA6D7000EDF6F000EDE6FDFBF28
:100BC80006D0DF513BE1020EDE5DD8B037D0000E13
:100BD800DD6F000EDC6FDDBF06D0DD512CE1080EA5
:100BE800DC5DD8B028D0DEC02DF0DFC02EF0000EBE
:100BF800306E140E2F6E83EC18F0550E0001CF6F77
:100C08007B0ED06F2D50CF272E50D023DC51CF270D
:100C1800DD51D023CFC0F6FFD0C0F7FF0800F55054
:100C2800C319D8A405D0050EDB6FDEC0DAF003D0F7
:100C3800DC4BDD2BD0D7DE4BDF2BC1D7DAC042F03F
:100C4800DB51B5EC0FF021D10001C205D8A410D0BA
:100C5800130EC119D8B40CD0C3390F0BDB6FC351B5
:100C68000F0BDA6FDAC042F0DB517CEC15F00DD1D6
:100C7800020E0001C219D8A412D0130EC119D8B49B
:100C88000ED0C3390F0BDB6FC3510F0BDA6FDAC00D
:100C980042F0C3C043F0DB5166EC07F0F6D0030E18
:100CA8000001C219D8A469D0130EC119D8B465D0EF
:100CB800000EDF6F000EDE6FDFBF06D0DF5159E197
:100CC800040EDE5DD8B055D0000EDD6F000EDC6F6F
:100CD800DDBF06D0DD514AE11A0EDC5DD8B046D042
:100CE800DEC02DF0DFC02EF0000E306E1A0E2F6E13
:100CF80083EC18F0410E0001CF6F7C0ED06F2D50A1
:100D0800CF272E50D023DC51CF27DD51D023CFC0A1
:100D1800F6FFD0C0F7FF0800F550640AD8B423D016
:100D2800DEC02DF0DFC02EF0000E306E1A0E2F6ED2
:100D380083EC18F0410E0001CF6F7C0ED06F2D5060
:100D4800CF272E50D023DC51CF27DD51D023CFC061
:100D5800F6FFD0C0F7FF0800F550C319D8A403D098
:100D6800DEC0DBF006D0DC4BDD2BB2D7DE4BDF2B51
:100D7800A3D7DB5109EC00F088D0080E0001C21996
:100D8800D8A40DD0130EC119D8B409D0C3390F0B8C
:100D9800DB6FC3C042F0DB517FEC0DF076D0090E5B
:100DA8000001C219D8A412D0130EC119D8B40ED09C
:100DB800C3390F0BDB6FC3510F0BDA6FDAC042F088
:100DC800C3C043F0DB51A2EC11F05FD00A0E000162
:100DD800C219D8A44ED0130EC119D8B44AD0000EE7
:100DE800DF6F000EDE6FDFBF06D0DF513CE1080E7B
:100DF800DE5DD8B038D0000EDD6F000EDC6FDDBFD1
:100E080006D0DD512DE1080EDC5DD8B029D0DEC05A
:100E1800CFF0DFC0D0F0D890CF37D037D890CF37C9
:100E2800D037D890CF37D037F90ED16F7E0ED26F2A
:100E3800CF51D127D051D223DC51D127DD51D22334
:100E4800D1C0F6FFD2C0F7FF0800F550C319D8A4E7
:100E580004D0DEC0DBF0DCC0DAF0DC4BDD2BCFD712
:100E6800DE4BDF2BC0D7DAC042F0DB512AEC13F09F
:100E78000CD00B0E0001C219D8A407D0130EC1194B
:100E8800D8B403D0C35106EC0BF0000E0001D96FA3
:100E98003F0ED96501D012D0D951020D000EF324AE
:100EA800D96E010EF420DA6EDE04DE10D8A403D069
:100EB800D95123EC17F00001D92BEAD72EEC16F004
:100EC80040D5FFD70001C46F000E0001CC6F000EA3
:100ED800CB6F000ECE6F000ECD6F000ECA6F000EE6
:100EE800C96F000EC86F000EC76F42C044F0030EF2
:100EF80044164450C56FC66B000ECC6F000ECB6F06
:100F0800CCBF06D0CC5150E1080ECB5DD8B04CD048
:100F1800000ECE6F000ECD6FCEBF06D0CE5141E190
:100F2800080ECD5DD8B03DD0CBC044F0CCC045F064
:100F3800D89044364536D89044364536D89044360D
:100F48004536F90E466E7E0E476E4450462645508D
:100F58004722CD514626CE51472246C0F6FF47C00C
:100F6800F7FF0800F5504318D8A418D0CBC044F0B8
:100F7800CCC045F0D89044364536D89044364536EE
:100F8800D89044364536F90E4424F66E7E0E452038
:100F9800F76E0800F550C76FC86B03D0CD4BCE2B4A
:100FA800BBD7CB4BCC2BACD7C451D8A4CDD0C5C064
:100FB800CBF0C6C0CCF0CCBF08D0CC5105E1080EB0
:100FC800CB5DD8B0120001D01200000ECE6F000E1B
:100FD800CD6FCEBF06D0CE514DE1030ECD5DD8B05A
:100FE80049D0CBC02DF0CCC02EF0000E306E030ED1
:100FF8002F6E83EC18F0B30E446E7F0E456E2D50A5
:1010080044262E5045220001CD514426CE5145227A
:1010180044C0F6FF45C0F7FF0800F550640AD8B48D
:1010280029D0CBC02DF0CCC02EF0000E306E030EB0
:101038002F6E83EC18F0B30E446E7F0E456E2D5064
:1010480044262E5045220001CD514426CE5145223A
:1010580044C0F6FF45C0F7FF0800F550C725C96F23
:10106800000EC821CA6FC95123EC17F00001CD4BFF
:10107800CE2BAFD72EEC16F00D0E446EFC0EE82EDC
:10108800FED7442EFCD7000E0001CE6F000ECD6FA8
:10109800CEBF06D0CE514DE1030ECD5DD8B049D0BC
:1010A800CBC02DF0CCC02EF0000E306E030E2F6E8C
:1010B80083EC18F0B30E446E7F0E456E2D50442617
:1010C8002E5045220001CD514426CE51452244C020
:1010D800F6FF45C0F7FF0800F550640AD8B429D0D8
:1010E800CBC02DF0CCC02EF0000E306E030E2F6E4C
:1010F80083EC18F0B30E446E7F0E456E2D504426D7
:101108002E5045220001CD514426CE51452244C0DF
:10111800F6FF45C0F7FF0800F550C725C96F000E58
:10112800C821CA6FC951C8EC16F00001CD4BCE2BAF
:10113800AFD72EEC16F00001CB4BCC2BCCBF45D74C
:10114800CC5101E13CD71200C405D8A4C3D0020E8B
:10115800C525CB6F000EC621CC6FCCBF1200000E88
:10116800CE6F000ECD6FCEBF06D0CE514DE1030E2F
:10117800CD5DD8B049D0CBC02DF0CCC02EF0000E3C
:10118800306E030E2F6E83EC18F0B30E446E7F0E94
:10119800456E2D5044262E5045220001CD5144263F
:1011A800CE51452244C0F6FF45C0F7FF0800F55070
:1011B800640AD8B429D0CBC02DF0CCC02EF0000ED4
:1011C800306E030E2F6E83EC18F0B30E446E7F0E54
:1011D800456E2D5044262E5045220001CD514426FF
:1011E800CE51452244C0F6FF45C0F7FF0800F55030
:1011F800C725C96F000EC821CA6FC95123EC17F063
:101208000001CD4BCE2BAFD72EEC16F00D0E446E51
:10121800FC0EE82EFED7442EFCD7000E0001CE6F40
:10122800000ECD6FCEBF06D0CE514DE1030ECD5D81
:10123800D8B049D0CBC02DF0CCC02EF0000E306E07
:10124800030E2F6E83EC18F0B30E446E7F0E456EBE
:101258002D5044262E5045220001CD514426CE5112
:10126800452244C0F6FF45C0F7FF0800F550640A60
:10127800D8B429D0CBC02DF0CCC02EF0000E306EE3
:10128800030E2F6E83EC18F0B30E446E7F0E456E7E
:101298002D5044262E5045220001CD514426CE51D2
:1012A800452244C0F6FF45C0F7FF0800F550C725A2
:1012B800C96F000EC821CA6FC951C8EC16F00001E9
:1012C800CD4BCE2BAFD72EEC16F00001CB07D8A014
:1012D800CC0743D7020EC419D8A4CDD0C5C0CBF0D3
:1012E800C6C0CCF0CCBF08D0CC5105E1070ECB5D11
:1012F800D8B0120001D01200000ECE6F000ECD6FD4
:10130800CEBF06D0CE514DE1030ECD5DD8B049D049
:10131800CBC02DF0CCC02EF0000E306E030E2F6E19
:1013280083EC18F0B30E446E7F0E456E2D504426A4
:101338002E5045220001CD514426CE51452244C0AD
:10134800F6FF45C0F7FF0800F550640AD8B429D065
:10135800CBC02DF0CCC02EF0000E306E030E2F6ED9
:1013680083EC18F0B30E446E7F0E456E2D50442664
:101378002E5045220001CD514426CE51452244C06D
:10138800F6FF45C0F7FF0800F550C725C96F000EE6
:10139800C821CA6FC95123EC17F00001CD4BCE2BE1
:1013A800AFD72EEC16F00D0E446EFC0EE82EFED7CD
:1013B800442EFCD7000E0001CE6F000ECD6FCEBFBD
:1013C80006D0CE514DE1030ECD5DD8B049D0CBC08B
:1013D8002DF0CCC02EF0000E306E030E2F6E83EC75
:1013E80018F0B30E446E7F0E456E2D5044262E50D5
:1013F80045220001CD514426CE51452244C0F6FF76
:1014080045C0F7FF0800F550640AD8B429D0CBC00E
:101418002DF0CCC02EF0000E306E030E2F6E83EC34
:1014280018F0B30E446E7F0E456E2D5044262E5094
:1014380045220001CD514426CE51452244C0F6FF35
:1014480045C0F7FF0800F550C725C96F000EC82131
:10145800CA6FC951C8EC16F00001CD4BCE2BAFD7DF
:101468002EEC16F00001CB4BCC2BCCBF45D7CC5182
:1014780001E13CD71200030EC419D8A41200020ED1
:10148800C525CB6F000EC621CC6FCCBF1200000E55
:10149800CE6F000ECD6FCEBF06D0CE514DE1030EFC
:1014A800CD5DD8B049D0CBC02DF0CCC02EF0000E09
:1014B800306E030E2F6E83EC18F0B30E446E7F0E61
:1014C800456E2D5044262E5045220001CD5144260C
:1014D800CE51452244C0F6FF45C0F7FF0800F5503D
:1014E800640AD8B429D0CBC02DF0CCC02EF0000EA1
:1014F800306E030E2F6E83EC18F0B30E446E7F0E21
:10150800456E2D5044262E5045220001CD514426CB
:10151800CE51452244C0F6FF45C0F7FF0800F550FC
:10152800C725C96F000EC821CA6FC95123EC17F02F
:101538000001CD4BCE2BAFD72EEC16F00D0E446E1E
:10154800FC0EE82EFED7442EFCD7000E0001CE6F0D
:10155800000ECD6FCEBF06D0CE514DE1030ECD5D4E
:10156800D8B049D0CBC02DF0CCC02EF0000E306ED4
:10157800030E2F6E83EC18F0B30E446E7F0E456E8B
:101588002D5044262E5045220001CD514426CE51DF
:10159800452244C0F6FF45C0F7FF0800F550640A2D
:1015A800D8B429D0CBC02DF0CCC02EF0000E306EB0
:1015B800030E2F6E83EC18F0B30E446E7F0E456E4B
:1015C8002D5044262E5045220001CD514426CE519F
:1015D800452244C0F6FF45C0F7FF0800F550C7256F
:1015E800C96F000EC821CA6FC951C8EC16F00001B6
:1015F800CD4BCE2BAFD72EEC16F00001CB07D8A0E1
:10160800CC0743D7446E000E466E000E456E000EA2
:10161800486E000E476E0F0E4418D8B43CD01C0E0E
:101628004418D8B438D0230E4418D8B434D0300E67
:101638004418D8B430D00A0E4418D8B42CD00B0EA5
:101648004418D8B428D0180E4418D8B424D0190E89
:101658004418D8B420D00E0E4418D8B41CD0220E8A
:101668004418D8B418D0260E4418D8B414D0270E6D
:101678004418D8B410D0340E4418D8B40CD0350E51
:101688004418D8B408D01D0E4418D8B404D0310E6C
:101698004418D8A4B9D0000E466E000E456E46BE5A
:1016A80008D0465005E1040E455CD8B0120001D0C0
:1016B8001200000E486E000E476E48BE06D0485015
:1016C80044E11D0E475CD8B040D045C02DF046C05F
:1016D8002EF0000E306E1D0E2F6E83EC18F0CD0E1E
:1016E800426E7B0E436E2D5042262E5043224750A9
:1016F80042264850432242C0F6FF43C0F7FF080085
:10170800F550640AD8B421D045C02DF046C02EF05B
:10171800000E306E1D0E2F6E83EC18F0CD0E426E4B
:101728007B0E436E2D5042262E50432247504226B0
:101738004850432242C0F6FF43C0F7FF0800F55067
:1017480023EC17F0474A482AB8D72EEC16F00D0EAE
:10175800426EFC0EE82EFED7422EFCD7000E486ED5
:10176800000E476E48BE06D0485044E11D0E475C47
:10177800D8B040D045C02DF046C02EF0000E306ED7
:101788001D0E2F6E83EC18F0CD0E426E7B0E436E4D
:101798002D5042262E50432247504226485043227D
:1017A80042C0F6FF43C0F7FF0800F550640AD8B4FA
:1017B80021D045C02DF046C02EF0000E306E1D0E13
:1017C8002F6E83EC18F0CD0E426E7B0E436E2D50BB
:1017D80042262E504322475042264850432242C0B8
:1017E800F6FF43C0F7FF0800F550C8EC16F0474A6B
:1017F800482AB8D72EEC16F0454A462A46BE59D78D
:10180800465001E150D7120051505210D8A4BDD013
:10181800000E466E000E456E46BE08D0465005E1E5
:10182800070E455CD8B0ACD001D0AAD0000E486EE7
:10183800000E476E48BE06D0485044E1180E475C7B
:10184800D8B040D045C02DF046C02EF0000E306E06
:10185800180E2F6E83EC18F0AD0E426E7A0E436EA2
:101868002D5042262E5043224750422648504322AC
:1018780042C0F6FF43C0F7FF0800F550640AD8B429
:1018880021D045C02DF046C02EF0000E306E180E47
:101898002F6E83EC18F0AD0E426E7A0E436E2D500B
:1018A80042262E504322475042264850432242C0E7
:1018B800F6FF43C0F7FF0800F55023EC17F0474A3E
:1018C800482AB8D72EEC16F00D0E426EFC0EE82E04
:1018D800FED7422EFCD7000E486E000E476E48BE5B
:1018E80006D0485044E1180E475CD8B040D045C0F7
:1018F8002DF046C02EF0000E306E180E2F6E83ECC1
:1019080018F0AD0E426E7A0E436E2D5042262E50C0
:101918004322475042264850432242C0F6FF43C064
:10192800F7FF0800F550640AD8B421D045C02DF05F
:1019380046C02EF0000E306E180E2F6E83EC18F095
:10194800AD0E426E7A0E436E2D5042262E50432223
:10195800475042264850432242C0F6FF43C0F7FF93
:101968000800F550C8EC16F0474A482AB8D72EECBC
:1019780016F0454A462A46BE59D7465001E150D787
:10198800000E526E010E516E120051045210D8A46E
:101998001200000E466E080E456E46BEA7D0000E19
:1019A800486E000E476E48BE06D0485044E1180EF7
:1019B800475CD8B040D045C02DF046C02EF0000E90
:1019C800306E180E2F6E83EC18F0AD0E426E7A0E44
:1019D800436E2D5042262E504322475042264850EF
:1019E800432242C0F6FF43C0F7FF0800F550640ADF
:1019F800D8B421D045C02DF046C02EF0000E306E70
:101A0800180E2F6E83EC18F0AD0E426E7A0E436EF0
:101A18002D5042262E5043224750422648504322FA
:101A280042C0F6FF43C0F7FF0800F55023EC17F05B
:101A3800474A482AB8D72EEC16F00D0E426EFC0E17
:101A4800E82EFED7422EFCD7000E486E000E476ED9
:101A580048BE06D0485044E1180E475CD8B040D084
:101A680045C02DF046C02EF0000E306E180E2F6EB9
:101A780083EC18F0AD0E426E7A0E436E2D5042265E
:101A88002E504322475042264850432242C0F6FF78
:101A980043C0F7FF0800F550640AD8B421D045C008
:101AA8002DF046C02EF0000E306E180E2F6E83EC0F
:101AB80018F0AD0E426E7A0E436E2D5042262E500F
:101AC8004322475042264850432242C0F6FF43C0B3
:101AD800F7FF0800F550C8EC16F0474A482AB8D76F
:101AE8002EEC16F04506D8A0460657D7000E526EC3
:101AF800000E516E1200456E000E466E000E476EC7
:101B0800425023EC17F02EEC16F04550D8A486D09E
:101B1800000E466E070E466401D01DD2000E476EB9
:101B2800070E476401D033D04650080DB90E436EF6
:101B38007E0E446EF3504326F45044224750010D64
:101B4800F3504326F450442243C0F6FF44C0F7FF45
:101B58000800F550640AD8B41AD04650080DB90EDA
:101B6800436E7E0E446EF3504326F4504422475091
:101B7800010DF3504326F450442243C0F6FF44C0FD
:101B8800F7FF0800F55023EC17F0472AC9D72EECC9
:101B980016F0070E436E7D0EE82EFED7432EFCD7B7
:101BA80000F0000E476E070E476401D033D0465050
:101BB800080DB90E436E7E0E446EF3504326F45062
:101BC80044224750010DF3504326F450442243C0A9
:101BD800F6FF44C0F7FF0800F550640AD8B41AD0DD
:101BE8004650080DB90E436E7E0E446EF3504326E0
:101BF800F45044224750010DF3504326F450442238
:101C080043C0F6FF44C0F7FF0800F550C8EC16F0D3
:101C1800472AC9D72EEC16F0462A7CD74504D8A403
:101C280086D0000E466E050E466401D094D1000E93
:101C3800476E070E476401D033D04650080D090E91
:101C4800436E7D0E446EF3504326F45044224750B1
:101C5800010DF3504326F450442243C0F6FF44C01C
:101C6800F7FF0800F550640AD8B41AD04650080D9A
:101C7800090E436E7D0E446EF3504326F450442201
:101C88004750010DF3504326F450442243C0F6FF59
:101C980044C0F7FF0800F55023EC17F0472AC9D7CE
:101CA8002EEC16F0070E436E7D0EE82EFED7432E5F
:101CB800FCD700F0000E476E070E476401D033D002
:101CC8004650080D090E436E7D0E446EF3504326B0
:101CD800F45044224750010DF3504326F450442257
:101CE80043C0F6FF44C0F7FF0800F550640AD8B4B3
:101CF8001AD04650080D090E436E7D0E446EF350FF
:101D08004326F45044224750010DF3504326F45023
:101D1800442243C0F6FF44C0F7FF0800F550C8EC62
:101D280016F0472AC9D72EEC16F0462A7CD7020EA1
:101D38004518D8A486D0000E466E050E466401D01C
:101D48000AD1000E476E070E476401D033D04650C3
:101D5800080D090E436E7D0E446EF3504326F45071
:101D680044224750010DF3504326F450442243C007
:101D7800F6FF44C0F7FF0800F550640AD8B41AD03B
:101D88004650080DA90E436E7C0E446EF350432650
:101D9800F45044224750010DF3504326F450442296
:101DA80043C0F6FF44C0F7FF0800F55023EC17F0D6
:101DB800472AC9D72EEC16F0070E436E7D0EE82E83
:101DC800FED7432EFCD700F0000E476E070E47647F
:101DD80001D033D04650080D090E436E7D0E446E77
:101DE800F3504326F45044224750010DF350432644
:101DF800F450442243C0F6FF44C0F7FF0800F550F2
:101E0800640AD8B41AD04650080DA90E436E7C0E49
:101E1800446EF3504326F45044224750010DF350CA
:101E28004326F450442243C0F6FF44C0F7FF08009D
:101E3800F550C8EC16F0472AC9D72EEC16F0462AFA
:101E48007CD7030E4518D8A486D0000E466E070E20
:101E5800466401D080D0000E476E070E476401D05B
:101E680033D04650080DA90E436E7C0E446EF350D5
:101E78004326F45044224750010DF3504326F450B2
:101E8800442243C0F6FF44C0F7FF0800F550640A37
:101E9800D8B41AD04650080D790E436E7E0E446EA3
:101EA800F3504326F45044224750010DF350432683
:101EB800F450442243C0F6FF44C0F7FF0800F55031
:101EC80023EC17F0472AC9D72EEC16F0070E436EFD
:101ED8007D0EE82EFED7432EFCD700F0000E476E8D
:101EE800070E476401D033D04650080DA90E436E43
:101EF8007C0E446EF3504326F45044224750010DA3
:101F0800F3504326F450442243C0F6FF44C0F7FF81
:101F18000800F550640AD8B41AD04650080D790E56
:101F2800436E7E0E446EF3504326F45044224750CD
:101F3800010DF3504326F450442243C0F6FF44C039
:101F4800F7FF0800F550C8EC16F0472AC9D72EEC61
:101F580016F0462A7CD74250C8EC16F02EEC16F044
:101F68001200476E000E496E000E486E4704D8A452
:101F78004ED0000E496E120E496401D0120049502D
:101F8800010D8B0EF324F66E7F0EF420F76E080019
:101F9800F55023EC17F04950436E446A010E43266E
:101FA800000E44228B0E4324F66E7F0E4420F76EFB
:101FB8000800F55023EC17F02EEC16F00D0E436ECA
:101FC800FC0EE82EFED7432EFCD74950010D8B0E90
:101FD800F324F66E7F0EF420F76E0800F550C8EC77
:101FE80016F04950436E446A010E4326000E4422FF
:101FF8008B0E4324F66E7F0E4420F76E0800F550D2
:10200800C8EC16F02EEC16F0020E4926B4D7020ED4
:102018004718D8A44ED0270E496E150E496001D036
:1020280012004950010D8B0EF324F66E7F0EF4203A
:10203800F76E0800F55023EC17F04950436E446AD8
:10204800010E4326000E44228B0E4324F66E7F0EAB
:102058004420F76E0800F55023EC17F02EEC16F02C
:102068000D0E436EFC0EE82EFED7432EFCD74950CA
:10207800010D8B0EF324F66E7F0EF420F76E080028
:10208800F550C8EC16F04950436E446A010E4326D9
:10209800000E44228B0E4324F66E7F0E4420F76E0A
:1020A8000800F550C8EC16F02EEC16F0020E495E4A
:1020B800B4D7030E4718D8A44ED0000E496E120E9E
:1020C800496401D012004950010D630EF324F66EE5
:1020D8007F0EF420F76E0800F55023EC17F04950F6
:1020E800436E446A010E4326000E4422630E4324C5
:1020F800F66E7F0E4420F76E0800F55023EC17F0BB
:102108002EEC16F00D0E436EFC0EE82EFED7432E75
:10211800FCD74950010D630EF324F66E7F0EF420B0
:10212800F76E0800F550C8EC16F04950436E446A43
:10213800010E4326000E4422630E4324F66E7F0EE2
:102148004420F76E0800F550C8EC16F02EEC16F097
:10215800020E4926B4D7040E4718D8A44ED0270E2D
:10216800496E150E496001D012004950010D630EE9
:10217800F324F66E7F0EF420F76E0800F55023EC7A
:1021880017F04950436E446A010E4326000E44225C
:10219800630E4324F66E7F0E4420F76E0800F55058
:1021A80023EC17F02EEC16F00D0E436EFC0EE82E05
:1021B800FED7432EFCD74950010D630EF324F66E6B
:1021C8007F0EF420F76E0800F550C8EC16F0495061
:1021D800436E446A010E4326000E4422630E4324D4
:1021E800F66E7F0E4420F76E0800F550C8EC16F026
:1021F8002EEC16F0020E495EB4D7050E4718D8A487
:102208001200000E466E000E456E42C049F0050EE3
:10221800496401D081D0000E486E130E486401D085
:1022280033D04950140D550E436E7B0E446EF35057
:102238004326F45044224850010DF3504326F450ED
:10224800442243C0F6FF44C0F7FF0800F550640A73
:10225800D8B41AD04950140D550E436E7B0E446EF7
:10226800F3504326F45044224850010DF3504326BE
:10227800F450442243C0F6FF44C0F7FF0800F5506D
:1022880023EC17F0482AC9D72EEC16F00D0E436E32
:10229800FC0EE82EFED7432EFCD7454A462A000EF0
:1022A800486E130E486401D033D04950140D550EB2
:1022B800436E7B0E446EF3504326F450442248503C
:1022C800010DF3504326F450442243C0F6FF44C0A6
:1022D800F7FF0800F550640AD8B41AD04950140D15
:1022E800550E436E7B0E446EF3504326F450442241
:1022F8004850010DF3504326F450442243C0F6FFE2
:1023080044C0F7FF0800F550C8EC16F0482AC9D7B2
:102318002EEC16F0492A7BD746BE06D046500DE172
:10232800030E455CD8B012001A0E436EF80EE82E64
:10233800FED7432EFCD700D012001200466E000EC6
:10234800486E000E476E000E496E4650D8A45CD009
:10235800000E486E0F0E486401D012004850040D5C
:10236800390EF324F66E7E0EF420F76E0800F55051
:102378004218D8A447D0000E476E030E476401D018
:102388003ED04850040D390E446E7E0E456EF35013
:102398004426F45045224750010DF3504426F4508A
:1023A800452244C0F6FF45C0F7FF0800F5CF49F0C5
:1023B8004950010D800EF324D96E000EF420DA6E18
:1023C800DF50D8A40DD0495023EC17F04950010D27
:1023D800800EF324D96E000EF420DA6E010E0CD0B4
:1023E8004950C8EC16F04950010D800EF324D96EFF
:1023F800000EF420DA6E000EDF6E472ABED72EECF0
:1024080016F01200482AA6D74604D8A45DD0000EBC
:10241800486E0F0E486401D012004850040D390E62
:10242800F324F66E7E0EF420F76E0800F55042187D
:10243800D8A448D0000E476E030E476401D03FD0A1
:102448004850040D390E446E7E0E456EF3504426F6
:10245800F45045224750010DF3504426F4504522CC
:1024680044C0F6FF45C0F7FF0800F550100F496E4D
:102478004950010D800EF324D96E000EF420DA6E57
:10248800DF50D8A40DD0495023EC17F04950010D66
:10249800800EF324D96E000EF420DA6E010E0CD0F3
:1024A8004950C8EC16F04950010D800EF324D96E3E
:1024B800000EF420DA6E000EDF6E472ABDD72EEC30
:1024C80016F01200482AA5D7020E4618D8A45DD0E7
:1024D800000E486E0F0E486401D012004850040DDB
:1024E800390EF324F66E7E0EF420F76E0800F550D0
:1024F8004218D8A448D0000E476E030E476401D096
:102508003FD04850040D390E446E7E0E456EF35090
:102518004426F45045224750010DF3504426F45008
:10252800452244C0F6FF45C0F7FF0800F550200FCC
:10253800496E4950010D800EF324D96E000EF42027
:10254800DA6EDF50D8A40DD0495023EC17F049506B
:10255800010D800EF324D96E000EF420DA6E010E00
:102568000CD04950C8EC16F04950010D800EF324E8
:10257800D96E000EF420DA6E000EDF6E472ABDD742
:102588002EEC16F01200482AA5D7030E4618D8A438
:102598001200000E486E0F0E486401D01200485019
:1025A800040D390EF324F66E7E0EF420F76E080043
:1025B800F5504218D8A448D0000E476E030E476461
:1025C80001D03FD04850040D390E446E7E0E456E42
:1025D800F3504426F45045224750010DF350442649
:1025E800F450452244C0F6FF45C0F7FF0800F550F7
:1025F800300F496E4950010D800EF324D96E000E3C
:10260800F420DA6EDF50D8A40DD0495023EC17F02F
:102618004950010D800EF324D96E000EF420DA6EB5
:10262800010E0CD04950C8EC16F04950010D800E2F
:10263800F324D96E000EF420DA6E000EDF6E472AFE
:10264800BDD72EEC16F01200482AA5D7506EFF0E03
:102658005024486E496AFF0E4922010E50244A6EE2
:102668004B6A000E4B22FF0E42244C6E4D6AFF0E41
:102678004D22010E42244E6E4F6A000E4F225050DA
:10268800080DF90E436E7E0E446EF3504326F45047
:1026980044224250010DF3504326F450442243C0D3
:1026A800F6FF44C0F7FF0800F55023EC17F02EECB6
:1026B80016F00D0E436EFC0EE82EFED7432EFCD707
:1026C8005050080DF90E436E7E0E446EF3504326AB
:1026D800F45044224250010DF3504326F450442252
:1026E80043C0F6FF44C0F7FF0800F550C8EC16F0E9
:1026F8002EEC16F0000E476E070E476401D012004C
:1027080049BE23D04250010D48C043F049C044F0AF
:10271800D89043364436D89043364436D89043361A
:102728004436F90E456E7E0E466E4350452644509B
:102738004622F3504526F450462245C0F6FF46C0CF
:10274800F7FF0800F55023EC17F04BBE06D04B50AE
:1027580027E1080E4A5CD8B023D04250010D4AC088
:1027680043F04BC044F0D89043364436D8904336B3
:102778004436D89043364436F90E456E7E0E466E82
:102788004350452644504622F3504526F4504622ED
:1027980045C0F6FF46C0F7FF0800F55023EC17F0D8
:1027A8004DBE16D05050080DF90E436E7E0E446E85
:1027B800F3504326F45044224C5043264D504422B3
:1027C80043C0F6FF44C0F7FF0800F55023EC17F0AC
:1027D8004FBE06D04F501AE1080E4E5CD8B016D046
:1027E8005050080DF90E436E7E0E446EF35043268A
:1027F800F45044224E5043264F50442243C0F6FF23
:1028080044C0F7FF0800F55023EC17F02EEC16F043
:102818000D0E436EFC0EE82EFED7432EFCD7425019
:10282800010D48C043F049C044F0D89043364436BF
:10283800D89043364436D89043364436F90E456E20
:102848007E0E466E4350452644504622F350452698
:10285800F450462245C0F6FF46C0F7FF0800F55081
:10286800C8EC16F04250010D4AC043F04BC044F08A
:10287800D89043364436D89043364436D8904336B9
:102888004436F90E456E7E0E466E4350452644503A
:102898004622F3504526F450462245C0F6FF46C06E
:1028A800F7FF0800F550C8EC16F05050080DF90E67
:1028B800436E7E0E446EF3504326F45044224C502F
:1028C80043264D50442243C0F6FF44C0F7FF08009A
:1028D800F550C8EC16F05050080DF90E436E7E0EF8
:1028E800446EF3504326F45044224E5043264F5032
:1028F800442243C0F6FF44C0F7FF0800F550C8EC77
:1029080016F02EEC16F04806D8A049064A4A4B2A7B
:102918004C06D8A04D064E4A4F2A472AEDD6060047
:10292800FACF18F0FBCF19F0E9CF1AF0EACF1BF075
:10293800E1CF1CF0E2CF1DF0D9CF1EF0DACF1FF0A7
:10294800F3CF20F0F4CF21F0F6CF22F0F7CF23F029
:10295800F8CF24F0F5CF25F053C026F054C027F067
:1029680055C028F056C029F0000E2C6E000E2B6EB4
:10297800000E2A6EF2B8F2A295D0010E0001C06FC7
:10298800F292000E2C6E3F0E2C6401D08BD02C508E
:10299800CBEC17F00009D8B483D02C507AEC17F0A0
:1029A8000009D8A47DD02CC0C3F0000E2B6E070EF2
:1029B8002B6401D041D02B50080D070EF326000ED2
:1029C800F422F90EF324F66E7E0EF420F76E08005A
:1029D800F5502C18D8A415D0ED0E146EFF0E156EF8
:1029E8002C50166E176A14501626155017221734D5
:1029F8001732163217341732163216500001C26FCA
:102A080019D02B50080D070EF326000EF422F90EEC
:102A1800F324F66E7E0EF420F76E0800F550020DD2
:102A2800000EF324D96E010EF420DA6E000EDE6E6D
:102A3800000EDD6E2B2ABBD7000E2B6E070E2B6403
:102A480001D030D0000E2A6E070E2A6401D026D09D
:102A58002B50080DF90E146E7E0E156EF3501426C9
:102A6800F45015222A50010DF3501426F450152263
:102A780014C0F6FF15C0F7FF0800F5502C18D8A4AD
:102A88000BD02A50010DF90EF324F66E7E0EF420B9
:102A9800F76E0800F5CFC1F02A2AD6D72B2ACED751
:102AA8002C2A71D729C056F028C055F027C054F0F9
:102AB80026C053F025C0F5FF24C0F8FF23C0F7FF58
:102AC80022C0F6FF21C0F4FF20C0F3FF1FC0DAFFC9
:102AD8001EC0D9FF1DC0E2FF1CC0E1FF1BC0EAFFFA
:102AE8001AC0E9FF19C0FBFF18C0FAFF5392110082
:102AF800466E000E486E000E496E000E476E000EC0
:102B0800486E030E486401D01200000E496E030E91
:102B1800496401D046D04250100DAD0E436E790E77
:102B2800446EF3504326F45044224850040DF350A9
:102B38004326F45044224950010DF3504326F450E3
:102B4800442243C0F6FF44C0F7FF0800F550640A6A
:102B5800D8B427D04250100DAD0E436E790E446E96
:102B6800F3504326F45044224850040DF3504326B2
:102B7800F45044224950010DF3504326F4504422A6
:102B880043C0F6FF44C0F7FF0800F5CF45F04650B4
:102B9800100DF3504524476E475023EC17F0492A8F
:102BA800B6D72EEC16F00D0E436EFC0EE82EFED7AF
:102BB800432EFCD7000E496E030E496401D046D05F
:102BC8004250100DAD0E436E790E446EF3504326FD
:102BD800F45044224850040DF3504326F450442244
:102BE8004950010DF3504326F450442243C0F6FFE8
:102BF80044C0F7FF0800F550640AD8B427D0425003
:102C0800100DAD0E436E790E446EF3504326F4500A
:102C180044224850040DF3504326F45044224950AE
:102C2800010DF3504326F450442243C0F6FF44C03C
:102C3800F7FF0800F5CF45F04650100DF350452436
:102C4800476E4750C8EC16F0492AB6D72EEC16F056
:102C5800482A57D7000E3C6E000E3B6E3CBE08D08B
:102C68003C5005E1040E3B5CD8B0120001D01200C4
:102C7800D3EC18F0E5EC18F0D3EC18F03BC02DF0CD
:102C88003CC02EF0000E306E1D0E2F6E83EC18F037
:102C9800800E2D24D96E010E2E20DA6EDF506CECDA
:102CA80018F0D3EC18F0000E6CEC18F0D3EC18F018
:102CB800000E3A6E000E396E3ABE06D03A505AE10E
:102CC800080E395CD8B056D03BC02DF03CC02EF071
:102CD800000E306E1D0E2F6E83EC18F039C033F0E5
:102CE8003AC034F0D890333634360D0E3326000E01
:102CF8003422800E356E010E366E33503526345030
:102D080036222D503524D96E2E503620DA6EDF50FB
:102D18006CEC18F03BC02DF03CC02EF0000E306E6D
:102D28001D0E2F6E83EC18F039C033F03AC034F022
:102D3800D890333634360D0E3326000E3422800EEA
:102D4800356E010E366E33503526345036222D50EE
:102D58003524D96E2E503620DA6EDECF37F0DDCF2F
:102D680038F038C037F0386A37506CEC18F0394A08
:102D78003A2AA2D7E3EC18F03B4A3C2A3CBE78D763
:102D88003C5001E16FD712003F6E3FC033F0333A39
:102D98000F0E331633503D6E3E6A3FC033F00F0EB0
:102DA80033163350406E416AEF0E4024F66E7F0EA4
:102DB8004120F76E0800F5CF33F00F0E3316010EE1
:102DC800346E000E356E332A03D0D890343635363B
:102DD800332EFBD7341C366E351C376E3DC02DF0B4
:102DE8003EC02EF0000E306E1D0E2F6E83EC18F0D4
:102DF800EF0E4024F66E7F0E4120F76E0800F5CFE7
:102E080038F038380F0B396E3A6AD89039363A3676
:102E18000D0E3926000E3A22800E3B6E010E3C6ED6
:102E280039503B263A503C222D503B24D96E2E5027
:102E38003C20DA6E3650DE163750DD1612003D6E35
:102E48003DC033F0333A0F0E331633503B6E3C6AB5
:102E58003DC033F00F0E331633503E6E3F6AEF0E0F
:102E68003E24F66E7F0E3F20F76E0800F5CF33F054
:102E78000F0E3316010E346E000E356E332A03D052
:102E8800D89034363536332EFBD73BC02DF03CC0B6
:102E98002EF0000E306E1D0E2F6E83EC18F0EF0E24
:102EA8003E24F66E7F0E3F20F76E0800F5CF36F011
:102EB80036380F0B376E386AD890373638360D0EDD
:102EC8003726000E3822800E396E010E3A6E3750C2
:102ED800392638503A222D503924D96E2E503A20AE
:102EE800DA6E3450DE123550DD121200136E13C044
:102EF80007F0073A0F0E071607500F6E106A13C037
:102F080007F00F0E07160750116E126A0FC001F076
:102F180010C002F0000E046E1D0E036E96EC18F041
:102F2800DF0E1124F66E7F0E1220F76E0800F5CF23
:102F380007F007380F0B086E096A070E0826000EFF
:102F48000922800E0A6E010E0B6E08500A260950DF
:102F58000B2201500A24D96E02500B20DA6EDF5082
:102F68000C6EDF0E1124F66E7F0E1220F76E08002D
:102F7800F5CF0DF00F0E0D16010E0E6E0D2A02D0B4
:102F8800D8900E360D2EFCD70E500C141200136E6E
:102F980013C007F0073A0F0E071607500F6E106A96
:102FA80013C007F00F0E07160750116E126A0FC0F4
:102FB80001F010C002F0000E046E1D0E036E96ECB8
:102FC80018F0DF0E1124F66E7F0E1220F76E08003F
:102FD800F5CF07F007380F0B086E096A010E0826AF
:102FE800000E0922800E0A6E010E0B6E08500A268A
:102FF80009500B2201500A24D96E02500B20DA6EB8
:10300800DF500C6EDF0E1124F66E7F0E1220F76E65
:103018000800F5CF0DF00F0E0D16010E0E6E0D2ADD
:1030280002D0D8900E360D2EFCD70E500C1412007C
:103038002E6E2EC0C9FFC6AE02D0FF0E1200C650BB
:103048000F0B080AD8B40FD0C6500F0B0B0AD8B410
:103058000AD0C6889EA6FED7C7A4C7B002D0FE0E67
:103068001200000E1200C6500F0B080AD8B405D083
:10307800C6500F0B0B0AD8A41200C7B0FED7D3EC6A
:1030880018F0C5AC02D0FE0E1200000E1200D20ECF
:10309800F66E310EF76E000EF86E0900F5CFE0F00F
:1030A8000900F5CFE1F001EE00F0F40EEE6AE80653
:1030B800FDE100EE80F0440EEE6AE806FDE1526A9A
:1030C800516A53905392000EF86E0001BFEF03F05F
:1030D800306EC9CF2FF030501CEC18F0316E326AC8
:1030E80031BE3206312806E13228D8A403D0C9CF30
:1030F8002FF0C69E31503210D8B41200ECD72D50A4
:103108002F02F3CF31F0F4CF32F02D503002F350CC
:1031180032262E502F02F350322631C02DF032C005
:103128002EF0120001500302F3CF05F0F4CF06F0A1
:1031380001500402F350062602500302F3500626FB
:1031480005C001F006C002F012002F6E9EB8ACA2B6
:10315800FDD72FC0ADFF9EB8ACA2FDD72DC0ADFFE7
:103168009EB8ACA2FDD72EC0ADFF12002E6E3F0E4A
:10317800C716000EC66E000EC56E2E50C6122D5014
:10318800C71294869488C68A1200948C948EB89636
:10319800AC84190EAF6EAC98AB8EAC8A1200C5CF5A
:1031A8002DF01F0E2D16D8A4FAD7C7A41200F7D7F2
:1031B800F288D08EF28EF292F19C93801200C58430
:0C31C8001200C5801200C69A120001001F
:1079AC0000006464640104056406090A640B0E0F8C
:1079BC0064016464640002056404060964080A0D29
:1079CC0064026464640103066405070A64090B0E0F
:1079DC0064036464640206076405090A64080C0DF8
:1079EC006404646464000508640106096402070AFF
:1079FC00640564646401040609070D6464646464CA
:107A0C0064066464640205070A040E6464646464B6
:107A1C00640764646403060B6402050A64010409C8
:107A2C00640864646404090C64050A0D64060B0E96
:107A3C00640964646405080A0D010B64646464647D
:107A4C00640A64646406090B0E020864646464646A
:107A5C00640B646464070A0F6406090E6405080D60
:107A6C00640C64646408090D6405060A6402030767
:107A7C00640D646464090C0E6405080A6401040650
:107A8C00640E6464640A0D0F6406090B6402050736
:107A9C00640F6464640A0B0E640506096400010437
:107AAC006400050A0F1316191C2326292C30353AAD
:107ABC003F646464646464646404090E2330272A9C
:107ACC002D1C31363B0F18151264646464646464B5
:107ADC0064031006070A0B0C20212522262F3C38A4
:107AEC003934351F331A1E191D020305060B1820D5
:107AFC002425290E223C3D393A34271B1F161A1D0A
:107B0C0031000105060A1317161A19282C252926E7
:107B1C003E3F393A35646464640001282C3E3F13BF
:107B2C001764646464646464646464646464646456
:107B3C0064002C3F1364646464646464646464640B
:107B4C006464646464646464640F1C2330646464FB
:107B5C00646464646464646464646464640B0E22CA
:107B6C0027181D31346464646464646464646464FC
:107B7C00640A0B18190E22262734351D31646464EF
:107B8C006464646464070A0D21262B14191E3235B3
:107B9C003864646464646464640506071415160927
:107BAC000D2125292A2B38393A1A1E32360205089E
:107BBC0024292E373A3D11161B6464646464646492
:107BCC00640F1C233064646464646464646464647B
:107BDC0064646464646464646464646464640A0B0C
:107BEC000E2226273435311D19180B646464646425
:107BFC0064646464646464646464640506071415F2
:107C0C00090D2125292A2B38393A36321E1A1664C9
:107C1C0064646464646464640001020310111213EC
:107C2C0004080C2024282C2D2E2F3C3D3E3F171BE6
:107C3C001F33373B3F00010203101112161A1E327C
:107C4C00363A04080C2024282C2D2E2F3C3D3E05C2
:107C5C0006071415191D313539090D2125292A2B33
:107C6C003864646464646464640A0B181C0E222611
:107C7C002734306464646464646464646464646459
:107C8C006464640F2364646464646464646464643E
:107C9C0064646464646464646464646464373A3D16
:107CAC003B3E3F64643336393C373A3D641F3235D2
:107CBC00383336393C1B1E31341F323538171A1DF8
:107CCC00301B1E31341316191C171A1D30121518BF
:107CDC000F1316191C11140B0E1215180F10070A7E
:107CEC000D11140B0E0306090C10070A0D020508E2
:107CFC000306090C64000102040508646400010217
:107D0C0004050864640205080306090C64030609EB
:107D1C000C070A0D20070A0D200B0E21240B0E2137
:107D2C00240F2225280F2225282326292C23262917
:107D3C002C30272A2D30272A2D31342B2E31342B61
:107D4C002E3235382F3235382F3336393C333639DD
:107D5C003C373A3D64373A3D3B3E3F646400010298
:107D6C00032F3C3D3E010203102E2F3C3D0203101D
:107D7C00112D2E2F3C031011122C2D2E2F10111201
:107D8C0016282C2D2E1112161A24282C2D12161AE8
:107D9C001E2024282C161A1E320C2024281A1E32BF
:107DAC0036080C20241E32363A04080C20232425D5
:107DBC0026272829002A2B2C2D2E2F300031323348
:107DCC00343536370038393A3B3C3D3E003E3F4077
:107DDC00414243440045464748494A4B004C4D4EAE
:107DEC004F505123002425262728292A0000102033
:107DFC00300111213102122232031323334050601F
:107E0C007041516171425262724353637304142482
:107E1C0034051525350616263607172737445464BE
:107E2C007445556575465666764757677700010465
:107E3C0005010205060203060703071014040508D2
:107E4C00090506090A06070A0B070B141808090C82
:107E5C000D090A0D0E0A0B0E0F0B180F1C0C0D2022
:107E6C00210D0E21220E0F22230F1C2330132C6404
:107E7C0064646464641217282D6464646411161BB2
:107E8C0024292E646410151A1F20252A2F03141977
:107E9C001E21262B0C0207181D080D222701060B8C
:107EAC001C04090E2300050A0F64646464132C641B
:107EBC0064646464641217282D6464646411161B72
:107ECC0024292E646410151A1F20252A2F14191E1C
:107EDC003321262B3C181D32372227383D1C3136D6
:107EEC003B2334393E30353A3F646464640001020C
:107EFC000310111213040506071415161708090AA6
:107F0C000B18191A1B0C0D0E0F1C1D1E1F202122E5
:107F1C002330313233242526273435363728292A85
:107F2C002B38393A3B2C2D2E2F3C3D3E3F05060776
:107F3C002B38390607142A2B38071415292A2B1429
:107F4C00151925292A15191D212529191D310D2130
:107F5C00251D3135090D210004080C2024282C295D
:107F6C0025210D09050A0E2226230F1C3035311D43
:107F7C0019161A1E32363A3F3B37331F1B171300A4
:107F8C00010203101112131615140706050A0B181B
:107F9C00191C0F233035342726292A2B38393A3F20
:107FAC003E3D3C2F2E2D2C0001020102030203103A
:107FBC000310111011121112131213641364640ABA
:107FCC000B27340B182627181C22261C300E220ACD
:107FDC000E30340704022205060001031030211371
:107FEC001211313A37353428292324161B11100E5F
:047FFC000D0C020066
:020000040020DA
:08000000FFFFFFFFFFFFFFFF00
:020000040030CA
:0E000000FF881F00FF8381FF0FC00FE00F403D
:00000001FF
